{
	"_format": "hh-sol-artifact-1",
	"contractName": "Register",
	"sourceName": "contracts/Register.sol",
	"abi": [
		{
			"inputs": [
				{
					"internalType": "address",
					"name": "_address",
					"type": "address"
				}
			],
			"name": "getIssuingAuthority",
			"outputs": [
				{
					"components": [
						{
							"internalType": "string",
							"name": "name",
							"type": "string"
						},
						{
							"internalType": "string",
							"name": "email",
							"type": "string"
						}
					],
					"internalType": "struct Register.IssuingAuthority",
					"name": "",
					"type": "tuple"
				}
			],
			"stateMutability": "view",
			"type": "function"
		},
		{
			"inputs": [
				{
					"internalType": "address",
					"name": "_address",
					"type": "address"
				}
			],
			"name": "getUser",
			"outputs": [
				{
					"components": [
						{
							"internalType": "string",
							"name": "name",
							"type": "string"
						},
						{
							"internalType": "string",
							"name": "email",
							"type": "string"
						},
						{
							"internalType": "string",
							"name": "profileImage",
							"type": "string"
						}
					],
					"internalType": "struct Register.User",
					"name": "",
					"type": "tuple"
				}
			],
			"stateMutability": "view",
			"type": "function"
		},
		{
			"inputs": [
				{
					"internalType": "string",
					"name": "_name",
					"type": "string"
				},
				{
					"internalType": "string",
					"name": "_email",
					"type": "string"
				}
			],
			"name": "setIssuingAuthority",
			"outputs": [],
			"stateMutability": "nonpayable",
			"type": "function"
		},
		{
			"inputs": [
				{
					"internalType": "string",
					"name": "_name",
					"type": "string"
				},
				{
					"internalType": "string",
					"name": "_email",
					"type": "string"
				},
				{
					"internalType": "string",
					"name": "_profileImage",
					"type": "string"
				}
			],
			"name": "setUser",
			"outputs": [],
			"stateMutability": "nonpayable",
			"type": "function"
		}
	],
	"bytecode": "0x608060405234801561001057600080fd5b50610e44806100206000396000f3fe608060405234801561001057600080fd5b506004361061004c5760003560e01c806309520795146100515780636b17b274146100815780636f77926b1461009d5780637fe58fb4146100cd575b600080fd5b61006b600480360381019061006691906108e5565b6100e9565b6040516100789190610b72565b60405180910390f35b61009b6004803603810190610096919061097a565b610266565b005b6100b760048036038101906100b291906108e5565b610402565b6040516100c49190610b94565b60405180910390f35b6100e760048036038101906100e2919061090e565b610610565b005b6100f161078a565b600260008373ffffffffffffffffffffffffffffffffffffffff1673ffffffffffffffffffffffffffffffffffffffff16815260200190815260200160002060405180604001604052908160008201805461014b90610cad565b80601f016020809104026020016040519081016040528092919081815260200182805461017790610cad565b80156101c45780601f10610199576101008083540402835291602001916101c4565b820191906000526020600020905b8154815290600101906020018083116101a757829003601f168201915b505050505081526020016001820180546101dd90610cad565b80601f016020809104026020016040519081016040528092919081815260200182805461020990610cad565b80156102565780601f1061022b57610100808354040283529160200191610256565b820191906000526020600020905b81548152906001019060200180831161023957829003601f168201915b5050505050815250509050919050565b600160003373ffffffffffffffffffffffffffffffffffffffff1673ffffffffffffffffffffffffffffffffffffffff16815260200190815260200160002060009054906101000a900460ff16156102f3576040517f08c379a00000000000000000000000000000000000000000000000000000000081526004016102ea90610b52565b60405180910390fd5b6040518060600160405280848152602001838152602001828152506000803373ffffffffffffffffffffffffffffffffffffffff1673ffffffffffffffffffffffffffffffffffffffff16815260200190815260200160002060008201518160000190805190602001906103689291906107a4565b5060208201518160010190805190602001906103859291906107a4565b5060408201518160020190805190602001906103a29291906107a4565b5090505060018060003373ffffffffffffffffffffffffffffffffffffffff1673ffffffffffffffffffffffffffffffffffffffff16815260200190815260200160002060006101000a81548160ff021916908315150217905550505050565b61040a61082a565b6000808373ffffffffffffffffffffffffffffffffffffffff1673ffffffffffffffffffffffffffffffffffffffff16815260200190815260200160002060405180606001604052908160008201805461046390610cad565b80601f016020809104026020016040519081016040528092919081815260200182805461048f90610cad565b80156104dc5780601f106104b1576101008083540402835291602001916104dc565b820191906000526020600020905b8154815290600101906020018083116104bf57829003601f168201915b505050505081526020016001820180546104f590610cad565b80601f016020809104026020016040519081016040528092919081815260200182805461052190610cad565b801561056e5780601f106105435761010080835404028352916020019161056e565b820191906000526020600020905b81548152906001019060200180831161055157829003601f168201915b5050505050815260200160028201805461058790610cad565b80601f01602080910402602001604051908101604052809291908181526020018280546105b390610cad565b80156106005780601f106105d557610100808354040283529160200191610600565b820191906000526020600020905b8154815290600101906020018083116105e357829003601f168201915b5050505050815250509050919050565b600360003373ffffffffffffffffffffffffffffffffffffffff1673ffffffffffffffffffffffffffffffffffffffff16815260200190815260200160002060009054906101000a900460ff161561069d576040517f08c379a000000000000000000000000000000000000000000000000000000000815260040161069490610b32565b60405180910390fd5b604051806040016040528083815260200182815250600260003373ffffffffffffffffffffffffffffffffffffffff1673ffffffffffffffffffffffffffffffffffffffff168152602001908152602001600020600082015181600001908051906020019061070d9291906107a4565b50602082015181600101908051906020019061072a9291906107a4565b509050506001600360003373ffffffffffffffffffffffffffffffffffffffff1673ffffffffffffffffffffffffffffffffffffffff16815260200190815260200160002060006101000a81548160ff0219169083151502179055505050565b604051806040016040528060608152602001606081525090565b8280546107b090610cad565b90600052602060002090601f0160209004810192826107d25760008555610819565b82601f106107eb57805160ff1916838001178555610819565b82800160010185558215610819579182015b828111156108185782518255916020019190600101906107fd565b5b509050610826919061084b565b5090565b60405180606001604052806060815260200160608152602001606081525090565b5b8082111561086457600081600090555060010161084c565b5090565b600061087b61087684610bdb565b610bb6565b90508281526020810184848401111561089357600080fd5b61089e848285610c6b565b509392505050565b6000813590506108b581610df7565b92915050565b600082601f8301126108cc57600080fd5b81356108dc848260208601610868565b91505092915050565b6000602082840312156108f757600080fd5b6000610905848285016108a6565b91505092915050565b6000806040838503121561092157600080fd5b600083013567ffffffffffffffff81111561093b57600080fd5b610947858286016108bb565b925050602083013567ffffffffffffffff81111561096457600080fd5b610970858286016108bb565b9150509250929050565b60008060006060848603121561098f57600080fd5b600084013567ffffffffffffffff8111156109a957600080fd5b6109b5868287016108bb565b935050602084013567ffffffffffffffff8111156109d257600080fd5b6109de868287016108bb565b925050604084013567ffffffffffffffff8111156109fb57600080fd5b610a07868287016108bb565b9150509250925092565b6000610a1c82610c0c565b610a268185610c17565b9350610a36818560208601610c7a565b610a3f81610d6e565b840191505092915050565b6000610a57602683610c28565b9150610a6282610d7f565b604082019050919050565b6000610a7a601a83610c28565b9150610a8582610dce565b602082019050919050565b60006040830160008301518482036000860152610aad8282610a11565b91505060208301518482036020860152610ac78282610a11565b9150508091505092915050565b60006060830160008301518482036000860152610af18282610a11565b91505060208301518482036020860152610b0b8282610a11565b91505060408301518482036040860152610b258282610a11565b9150508091505092915050565b60006020820190508181036000830152610b4b81610a4a565b9050919050565b60006020820190508181036000830152610b6b81610a6d565b9050919050565b60006020820190508181036000830152610b8c8184610a90565b905092915050565b60006020820190508181036000830152610bae8184610ad4565b905092915050565b6000610bc0610bd1565b9050610bcc8282610cdf565b919050565b6000604051905090565b600067ffffffffffffffff821115610bf657610bf5610d3f565b5b610bff82610d6e565b9050602081019050919050565b600081519050919050565b600082825260208201905092915050565b600082825260208201905092915050565b6000610c4482610c4b565b9050919050565b600073ffffffffffffffffffffffffffffffffffffffff82169050919050565b82818337600083830152505050565b60005b83811015610c98578082015181840152602081019050610c7d565b83811115610ca7576000848401525b50505050565b60006002820490506001821680610cc557607f821691505b60208210811415610cd957610cd8610d10565b5b50919050565b610ce882610d6e565b810181811067ffffffffffffffff82111715610d0757610d06610d3f565b5b80604052505050565b7f4e487b7100000000000000000000000000000000000000000000000000000000600052602260045260246000fd5b7f4e487b7100000000000000000000000000000000000000000000000000000000600052604160045260246000fd5b6000601f19601f8301169050919050565b7f49737375696e67417574686f7269747920697320616c7265616479207265676960008201527f7374657265640000000000000000000000000000000000000000000000000000602082015250565b7f5573657220697320616c72656164792072656769737465726564000000000000600082015250565b610e0081610c39565b8114610e0b57600080fd5b5056fea26469706673582212209135d155b8853b69f7cceacfad5dae1800e0988f7b6d1e81dfe9aa331d8f5b8a64736f6c63430008040033",
	"linkReferences": {},
	"deployedLinkReferences": {}
}