{
  "_format": "hh-sol-artifact-1",
  "contractName": "Register",
  "sourceName": "contracts/Register.sol",
  "abi": [
    {
      "inputs": [
        {
          "internalType": "address",
          "name": "_address",
          "type": "address"
        }
      ],
      "name": "getUser",
      "outputs": [
        {
          "components": [
            {
              "internalType": "string",
              "name": "name",
              "type": "string"
            },
            {
              "internalType": "string",
              "name": "email",
              "type": "string"
            },
            {
              "internalType": "string",
              "name": "profileimage",
              "type": "string"
            },
            {
              "internalType": "uint256",
              "name": "userId",
              "type": "uint256"
            }
          ],
          "internalType": "struct Register.User",
          "name": "",
          "type": "tuple"
        }
      ],
      "stateMutability": "view",
      "type": "function"
    },
    {
      "inputs": [
        {
          "internalType": "address",
          "name": "",
          "type": "address"
        }
      ],
      "name": "isUserAddMapping",
      "outputs": [
        {
          "internalType": "bool",
          "name": "",
          "type": "bool"
        }
      ],
      "stateMutability": "view",
      "type": "function"
    },
    {
      "inputs": [
        {
          "internalType": "string",
          "name": "_name",
          "type": "string"
        },
        {
          "internalType": "string",
          "name": "_email",
          "type": "string"
        },
        {
          "internalType": "string",
          "name": "_profileImage",
          "type": "string"
        },
        {
          "internalType": "uint256",
          "name": "_userId",
          "type": "uint256"
        }
      ],
      "name": "setUser",
      "outputs": [],
      "stateMutability": "nonpayable",
      "type": "function"
    },
    {
      "inputs": [
        {
          "internalType": "address",
          "name": "",
          "type": "address"
        }
      ],
      "name": "usersMapping",
      "outputs": [
        {
          "internalType": "string",
          "name": "name",
          "type": "string"
        },
        {
          "internalType": "string",
          "name": "email",
          "type": "string"
        },
        {
          "internalType": "string",
          "name": "profileimage",
          "type": "string"
        },
        {
          "internalType": "uint256",
          "name": "userId",
          "type": "uint256"
        }
      ],
      "stateMutability": "view",
      "type": "function"
    }
  ],
  "bytecode": "0x608060405234801561001057600080fd5b50610d34806100206000396000f3fe608060405234801561001057600080fd5b506004361061004c5760003560e01c806348ab214a146100515780636f77926b146100845780638ff9528c146100b4578063cb6d308a146100e4575b600080fd5b61006b6004803603810190610066919061080a565b610100565b60405161007b9493929190610a2c565b60405180910390f35b61009e6004803603810190610099919061080a565b6102c8565b6040516100ab9190610aa6565b60405180910390f35b6100ce60048036038101906100c9919061080a565b6104e0565b6040516100db9190610a11565b60405180910390f35b6100fe60048036038101906100f99190610833565b610500565b005b600060205280600052604060002060009150905080600001805461012390610bd5565b80601f016020809104026020016040519081016040528092919081815260200182805461014f90610bd5565b801561019c5780601f106101715761010080835404028352916020019161019c565b820191906000526020600020905b81548152906001019060200180831161017f57829003601f168201915b5050505050908060010180546101b190610bd5565b80601f01602080910402602001604051908101604052809291908181526020018280546101dd90610bd5565b801561022a5780601f106101ff5761010080835404028352916020019161022a565b820191906000526020600020905b81548152906001019060200180831161020d57829003601f168201915b50505050509080600201805461023f90610bd5565b80601f016020809104026020016040519081016040528092919081815260200182805461026b90610bd5565b80156102b85780601f1061028d576101008083540402835291602001916102b8565b820191906000526020600020905b81548152906001019060200180831161029b57829003601f168201915b5050505050908060030154905084565b6102d06106ad565b6000808373ffffffffffffffffffffffffffffffffffffffff1673ffffffffffffffffffffffffffffffffffffffff16815260200190815260200160002060405180608001604052908160008201805461032990610bd5565b80601f016020809104026020016040519081016040528092919081815260200182805461035590610bd5565b80156103a25780601f10610377576101008083540402835291602001916103a2565b820191906000526020600020905b81548152906001019060200180831161038557829003601f168201915b505050505081526020016001820180546103bb90610bd5565b80601f01602080910402602001604051908101604052809291908181526020018280546103e790610bd5565b80156104345780601f1061040957610100808354040283529160200191610434565b820191906000526020600020905b81548152906001019060200180831161041757829003601f168201915b5050505050815260200160028201805461044d90610bd5565b80601f016020809104026020016040519081016040528092919081815260200182805461047990610bd5565b80156104c65780601f1061049b576101008083540402835291602001916104c6565b820191906000526020600020905b8154815290600101906020018083116104a957829003601f168201915b505050505081526020016003820154815250509050919050565b60016020528060005260406000206000915054906101000a900460ff1681565b600160003373ffffffffffffffffffffffffffffffffffffffff1673ffffffffffffffffffffffffffffffffffffffff16815260200190815260200160002060009054906101000a900460ff161561058d576040517f08c379a000000000000000000000000000000000000000000000000000000000815260040161058490610a86565b60405180910390fd5b6040518060800160405280858152602001848152602001838152602001828152506000803373ffffffffffffffffffffffffffffffffffffffff1673ffffffffffffffffffffffffffffffffffffffff16815260200190815260200160002060008201518160000190805190602001906106089291906106d5565b5060208201518160010190805190602001906106259291906106d5565b5060408201518160020190805190602001906106429291906106d5565b506060820151816003015590505060018060003373ffffffffffffffffffffffffffffffffffffffff1673ffffffffffffffffffffffffffffffffffffffff16815260200190815260200160002060006101000a81548160ff02191690831515021790555050505050565b6040518060800160405280606081526020016060815260200160608152602001600081525090565b8280546106e190610bd5565b90600052602060002090601f016020900481019282610703576000855561074a565b82601f1061071c57805160ff191683800117855561074a565b8280016001018555821561074a579182015b8281111561074957825182559160200191906001019061072e565b5b509050610757919061075b565b5090565b5b8082111561077457600081600090555060010161075c565b5090565b600061078b61078684610aed565b610ac8565b9050828152602081018484840111156107a357600080fd5b6107ae848285610b93565b509392505050565b6000813590506107c581610cd0565b92915050565b600082601f8301126107dc57600080fd5b81356107ec848260208601610778565b91505092915050565b60008135905061080481610ce7565b92915050565b60006020828403121561081c57600080fd5b600061082a848285016107b6565b91505092915050565b6000806000806080858703121561084957600080fd5b600085013567ffffffffffffffff81111561086357600080fd5b61086f878288016107cb565b945050602085013567ffffffffffffffff81111561088c57600080fd5b610898878288016107cb565b935050604085013567ffffffffffffffff8111156108b557600080fd5b6108c1878288016107cb565b92505060606108d2878288016107f5565b91505092959194509250565b6108e781610b5d565b82525050565b60006108f882610b1e565b6109028185610b29565b9350610912818560208601610ba2565b61091b81610c96565b840191505092915050565b600061093182610b1e565b61093b8185610b3a565b935061094b818560208601610ba2565b61095481610c96565b840191505092915050565b600061096c601a83610b3a565b915061097782610ca7565b602082019050919050565b6000608083016000830151848203600086015261099f82826108ed565b915050602083015184820360208601526109b982826108ed565b915050604083015184820360408601526109d382826108ed565b91505060608301516109e860608601826109f3565b508091505092915050565b6109fc81610b89565b82525050565b610a0b81610b89565b82525050565b6000602082019050610a2660008301846108de565b92915050565b60006080820190508181036000830152610a468187610926565b90508181036020830152610a5a8186610926565b90508181036040830152610a6e8185610926565b9050610a7d6060830184610a02565b95945050505050565b60006020820190508181036000830152610a9f8161095f565b9050919050565b60006020820190508181036000830152610ac08184610982565b905092915050565b6000610ad2610ae3565b9050610ade8282610c07565b919050565b6000604051905090565b600067ffffffffffffffff821115610b0857610b07610c67565b5b610b1182610c96565b9050602081019050919050565b600081519050919050565b600082825260208201905092915050565b600082825260208201905092915050565b6000610b5682610b69565b9050919050565b60008115159050919050565b600073ffffffffffffffffffffffffffffffffffffffff82169050919050565b6000819050919050565b82818337600083830152505050565b60005b83811015610bc0578082015181840152602081019050610ba5565b83811115610bcf576000848401525b50505050565b60006002820490506001821680610bed57607f821691505b60208210811415610c0157610c00610c38565b5b50919050565b610c1082610c96565b810181811067ffffffffffffffff82111715610c2f57610c2e610c67565b5b80604052505050565b7f4e487b7100000000000000000000000000000000000000000000000000000000600052602260045260246000fd5b7f4e487b7100000000000000000000000000000000000000000000000000000000600052604160045260246000fd5b6000601f19601f8301169050919050565b7f5573657220697320616c72656164792052656769737465726564000000000000600082015250565b610cd981610b4b565b8114610ce457600080fd5b50565b610cf081610b89565b8114610cfb57600080fd5b5056fea26469706673582212201f66ce034dfcf983a566639bb4f935f19b0c3f6a8dcd9966dc783e87ea36532164736f6c63430008040033",
  "linkReferences": {},
  "deployedLinkReferences": {}
}